{
  "contractName": "Contest",
  "abi": [
    {
      "constant": true,
      "inputs": [],
      "name": "contestantCount",
      "outputs": [
        {
          "name": "",
          "type": "uint256"
        }
      ],
      "payable": false,
      "stateMutability": "view",
      "type": "function",
      "signature": "0x613711c2"
    },
    {
      "inputs": [
        {
          "name": "",
          "type": "uint256"
        }
      ],
      "payable": false,
      "stateMutability": "view",
      "type": "function",
      "signature": "0xdfd50f52",
      "constant": true,
      "name": "contestants",
      "outputs": [
        {
          "name": "id",
          "type": "uint256"
        },
        {
          "name": "name",
          "type": "string"
        },
        {
          "name": "voteCount",
          "type": "uint256"
        }
      ]
    },
    {
      "inputs": [],
      "payable": false,
      "stateMutability": "nonpayable",
      "type": "constructor",
      "signature": "constructor"
    }
  ],
  "bytecode": "0x608060405234801561001057600080fd5b5061005e6040518060400160405280600481526020017f4e616d6f000000000000000000000000000000000000000000000000000000008152506100b0640100000000026401000000009004565b6100ab6040518060400160405280600481526020017f52616761000000000000000000000000000000000000000000000000000000008152506100b0640100000000026401000000009004565b6101d0565b600160008154809291906001019190505550604051806060016040528060015481526020018281526020016000815250600080600154815260200190815260200160002060008201518160000155602082015181600101908051906020019061011a92919061012b565b506040820151816002015590505050565b828054600181600116156101000203166002900490600052602060002090601f016020900481019282601f1061016c57805160ff191683800117855561019a565b8280016001018555821561019a579182015b8281111561019957825182559160200191906001019061017e565b5b5090506101a791906101ab565b5090565b6101cd91905b808211156101c95760008160009055506001016101b1565b5090565b90565b61021f806101df6000396000f3fe608060405234801561001057600080fd5b5060043610610053576000357c010000000000000000000000000000000000000000000000000000000090048063613711c214610058578063dfd50f5214610076575b600080fd5b61006061012b565b6040518082815260200191505060405180910390f35b6100a26004803603602081101561008c57600080fd5b8101908080359060200190929190505050610131565b6040518084815260200180602001838152602001828103825284818151815260200191508051906020019080838360005b838110156100ee5780820151818401526020810190506100d3565b50505050905090810190601f16801561011b5780820380516001836020036101000a031916815260200191505b5094505050505060405180910390f35b60015481565b6000602052806000526040600020600091509050806000015490806001018054600181600116156101000203166002900480601f0160208091040260200160405190810160405280929190818152602001828054600181600116156101000203166002900480156101e35780601f106101b8576101008083540402835291602001916101e3565b820191906000526020600020905b8154815290600101906020018083116101c657829003601f168201915b505050505090806002015490508356fea165627a7a723058204eaefe9874c135f57308fd81f8f3b6e2cc7f56ee9419cb1e57b03b3b10fffa750029",
  "source": "pragma solidity 0.5.6;\r\n\r\n//the contract\r\n\r\ncontract Contest {\r\n    \r\n    struct Contestant {\r\n        uint id;\r\n        string name;\r\n        uint voteCount;\r\n    }\r\n\r\n    //mapping to fetch contestant details.\r\n    mapping(uint => Contestant) public contestants;\r\n\r\n    //public variable to keep count of contestants\r\n    uint public contestantCount;\r\n\r\n    constructor() public {\r\n        addContestant(\"Namo\");\r\n        addContestant(\"Raga\");\r\n    }\r\n\r\n    //function to add a contestant\r\n    function addContestant(string memory _name) private {\r\n        contestantCount++;\r\n        contestants[contestantCount] = Contestant(contestantCount, _name, 0);\r\n    }\r\n    \r\n}",
  "sourcePath": "D:/StudySpace/BC/blockchain-and-smart-contracts-a-complete-practical-guide/contest/contracts/Contest.sol",
  "compiler": {
    "name": "solc",
    "version": "0.5.6+commit.b259423e.Emscripten.clang"
  },
  "schemaVersion": "3.0.6",
  "updatedAt": "2019-04-25T05:28:00.398Z",
  "devdoc": {
    "methods": {}
  },
  "userdoc": {
    "methods": {}
  }
}