{
  "contractName": "Contest",
  "abi": [
    {
      "constant": true,
      "inputs": [],
      "name": "contestantCount",
      "outputs": [
        {
          "name": "",
          "type": "uint256"
        }
      ],
      "payable": false,
      "stateMutability": "view",
      "type": "function",
      "signature": "0x613711c2"
    },
    {
      "inputs": [
        {
          "name": "",
          "type": "address"
        }
      ],
      "payable": false,
      "stateMutability": "view",
      "type": "function",
      "signature": "0xa3ec138d",
      "constant": true,
      "name": "voters",
      "outputs": [
        {
          "name": "",
          "type": "bool"
        },
        {
          "name": "name",
          "type": "string"
        },
        {
          "name": "voteCount",
          "type": "uint256"
        }
      ]
    },
    {
      "inputs": [
        {
          "name": "",
          "type": "uint256"
        }
      ],
      "payable": false,
      "stateMutability": "view",
      "type": "function",
      "signature": "0xdfd50f52",
      "constant": true,
      "name": "contestants",
      "outputs": [
        {
          "name": "id",
          "type": "uint256"
        },
        {
          "name": "name",
          "type": "string"
        },
        {
          "name": "voteCount",
          "type": "uint256"
        }
      ]
    },
    {
      "inputs": [],
      "payable": false,
      "stateMutability": "nonpayable",
      "type": "constructor",
      "signature": "constructor"
    },
    {
      "constant": false,
      "inputs": [
        {
          "name": "_contestantId",
          "type": "uint256",
          "indexed": true
        }
      ],
      "name": "votedEvent",
      "outputs": [],
      "payable": false,
      "stateMutability": "nonpayable",
      "type": "event",
      "signature": "0xfff3c900d938d21d0990d786e819f29b8d05c1ef587b462b939609625b684b16",
      "anonymous": false
    },
    {
      "constant": false,
      "inputs": [
        {
          "name": "_contestantId",
          "type": "uint256"
        }
      ],
      "name": "vote",
      "outputs": [],
      "payable": false,
      "stateMutability": "nonpayable",
      "type": "function",
      "signature": "0x0121b93f"
    }
  ],
  "bytecode": "0x608060405234801561001057600080fd5b5061005e6040518060400160405280600481526020017f4e616d6f000000000000000000000000000000000000000000000000000000008152506100b0640100000000026401000000009004565b6100ab6040518060400160405280600481526020017f52616761000000000000000000000000000000000000000000000000000000008152506100b0640100000000026401000000009004565b6101d0565b600260008154809291906001019190505550604051806060016040528060025481526020018281526020016000815250600080600254815260200190815260200160002060008201518160000155602082015181600101908051906020019061011a92919061012b565b506040820151816002015590505050565b828054600181600116156101000203166002900490600052602060002090601f016020900481019282601f1061016c57805160ff191683800117855561019a565b8280016001018555821561019a579182015b8281111561019957825182559160200191906001019061017e565b5b5090506101a791906101ab565b5090565b6101cd91905b808211156101c95760008160009055506001016101b1565b5090565b90565b6103fd806101df6000396000f3fe608060405234801561001057600080fd5b5060043610610069576000357c0100000000000000000000000000000000000000000000000000000000900480630121b93f1461006e578063613711c21461009c578063a3ec138d146100ba578063dfd50f5214610116575b600080fd5b61009a6004803603602081101561008457600080fd5b81019080803590602001909291905050506101cb565b005b6100a46102e9565b6040518082815260200191505060405180910390f35b6100fc600480360360208110156100d057600080fd5b81019080803573ffffffffffffffffffffffffffffffffffffffff1690602001909291905050506102ef565b604051808215151515815260200191505060405180910390f35b6101426004803603602081101561012c57600080fd5b810190808035906020019092919050505061030f565b6040518084815260200180602001838152602001828103825284818151815260200191508051906020019080838360005b8381101561018e578082015181840152602081019050610173565b50505050905090810190601f1680156101bb5780820380516001836020036101000a031916815260200191505b5094505050505060405180910390f35b600160003373ffffffffffffffffffffffffffffffffffffffff1673ffffffffffffffffffffffffffffffffffffffff16815260200190815260200160002060009054906101000a900460ff161561022257600080fd5b60008111801561023457506002548111155b61023d57600080fd5b6000808281526020019081526020016000206002016000815480929190600101919050555060018060003373ffffffffffffffffffffffffffffffffffffffff1673ffffffffffffffffffffffffffffffffffffffff16815260200190815260200160002060006101000a81548160ff021916908315150217905550807ffff3c900d938d21d0990d786e819f29b8d05c1ef587b462b939609625b684b1660405160405180910390a250565b60025481565b60016020528060005260406000206000915054906101000a900460ff1681565b6000602052806000526040600020600091509050806000015490806001018054600181600116156101000203166002900480601f0160208091040260200160405190810160405280929190818152602001828054600181600116156101000203166002900480156103c15780601f10610396576101008083540402835291602001916103c1565b820191906000526020600020905b8154815290600101906020018083116103a457829003601f168201915b505050505090806002015490508356fea165627a7a72305820acde9ca4cdf147565b765f8cf64c2091f8f2aa5ee06d5c0a9bc728bcd905ca130029",
  "source": "pragma solidity >=0.5.0;\r\n\r\n//the contract\r\n\r\ncontract Contest {\r\n    \r\n    struct Contestant {\r\n        uint id;\r\n        string name;\r\n        uint voteCount;\r\n    }\r\n\r\n    //mapping to fetch contestant details.\r\n    mapping(uint => Contestant) public contestants;\r\n\r\n    //\r\n    mapping(address => bool) public voters;\r\n    \r\n    //public variable to keep count of contestants\r\n    uint public contestantCount;\r\n\r\n    event votedEvent (\r\n        uint indexed _contestantId\r\n    );\r\n\r\n\r\n    constructor() public {\r\n        addContestant(\"Namo\");\r\n        addContestant(\"Raga\");\r\n    }\r\n\r\n    //function to add a contestant\r\n    function addContestant(string memory _name) private {\r\n        contestantCount++;\r\n        contestants[contestantCount] = Contestant(contestantCount, _name, 0);\r\n    }\r\n    \r\n    function vote (uint _contestantId) public {\r\n        //restricting the person who already casted the vote\r\n        require(!voters[msg.sender]);\r\n        \r\n        //require that the vote is casted to a valid contestant\r\n        require(_contestantId > 0 && _contestantId <= contestantCount);\r\n        \r\n        //increase the contestant vote count\r\n        contestants[_contestantId].voteCount ++;\r\n        \r\n        //set the voter's voted status to true\r\n        voters[msg.sender] = true;\r\n\r\n        //trigger the vote event\r\n        emit votedEvent(_contestantId);\r\n\t}\r\n\r\n\r\n} ",
  "sourcePath": "D:/StudySpace/BC/blockchain-and-smart-contracts-a-complete-practical-guide/contest/contracts/Contest.sol",
  "compiler": {
    "name": "solc",
    "version": "0.5.7+commit.6da8b019.Emscripten.clang"
  },
  "schemaVersion": "3.0.6",
  "updatedAt": "2019-04-28T10:05:11.451Z",
  "devdoc": {
    "methods": {}
  },
  "userdoc": {
    "methods": {}
  }
}